{
  "contractName": "DiplomaRegistry",
  "abi": [
    {
      "inputs": [
        {
          "internalType": "address",
          "name": "",
          "type": "address"
        }
      ],
      "name": "diplomas",
      "outputs": [
        {
          "internalType": "string",
          "name": "name",
          "type": "string"
        },
        {
          "internalType": "string",
          "name": "firstName",
          "type": "string"
        },
        {
          "internalType": "string",
          "name": "cne",
          "type": "string"
        },
        {
          "internalType": "string",
          "name": "cin",
          "type": "string"
        },
        {
          "internalType": "string",
          "name": "degree",
          "type": "string"
        },
        {
          "internalType": "string",
          "name": "specialization",
          "type": "string"
        },
        {
          "internalType": "string",
          "name": "university",
          "type": "string"
        },
        {
          "internalType": "uint256",
          "name": "year",
          "type": "uint256"
        },
        {
          "internalType": "string",
          "name": "mention",
          "type": "string"
        }
      ],
      "stateMutability": "view",
      "type": "function",
      "constant": true
    },
    {
      "inputs": [
        {
          "internalType": "string",
          "name": "name",
          "type": "string"
        },
        {
          "internalType": "string",
          "name": "firstName",
          "type": "string"
        },
        {
          "internalType": "string",
          "name": "cne",
          "type": "string"
        },
        {
          "internalType": "string",
          "name": "cin",
          "type": "string"
        },
        {
          "internalType": "string",
          "name": "degree",
          "type": "string"
        },
        {
          "internalType": "string",
          "name": "specialization",
          "type": "string"
        },
        {
          "internalType": "string",
          "name": "university",
          "type": "string"
        },
        {
          "internalType": "uint256",
          "name": "year",
          "type": "uint256"
        },
        {
          "internalType": "string",
          "name": "mention",
          "type": "string"
        }
      ],
      "name": "registerDiploma",
      "outputs": [],
      "stateMutability": "nonpayable",
      "type": "function"
    },
    {
      "inputs": [
        {
          "internalType": "address",
          "name": "student",
          "type": "address"
        }
      ],
      "name": "getDiploma",
      "outputs": [
        {
          "components": [
            {
              "internalType": "string",
              "name": "name",
              "type": "string"
            },
            {
              "internalType": "string",
              "name": "firstName",
              "type": "string"
            },
            {
              "internalType": "string",
              "name": "cne",
              "type": "string"
            },
            {
              "internalType": "string",
              "name": "cin",
              "type": "string"
            },
            {
              "internalType": "string",
              "name": "degree",
              "type": "string"
            },
            {
              "internalType": "string",
              "name": "specialization",
              "type": "string"
            },
            {
              "internalType": "string",
              "name": "university",
              "type": "string"
            },
            {
              "internalType": "uint256",
              "name": "year",
              "type": "uint256"
            },
            {
              "internalType": "string",
              "name": "mention",
              "type": "string"
            }
          ],
          "internalType": "struct DiplomaRegistry.Diploma",
          "name": "",
          "type": "tuple"
        }
      ],
      "stateMutability": "view",
      "type": "function",
      "constant": true
    }
  ],
  "bytecode": "0x608060405234801561001057600080fd5b50611378806100206000396000f3fe608060405234801561001057600080fd5b50600436106100415760003560e01c80631275088c14610046578063529f615f14610076578063b12683dc146100ae575b600080fd5b610060600480360381019061005b9190610d4b565b6100ca565b60405161006d9190611145565b60405180910390f35b610090600480360381019061008b9190610d4b565b6105bd565b6040516100a599989796959493929190611080565b60405180910390f35b6100c860048036038101906100c39190610d74565b610a4b565b005b6100d2610bca565b6000808373ffffffffffffffffffffffffffffffffffffffff1673ffffffffffffffffffffffffffffffffffffffff1681526020019081526020016000206040518061012001604052908160008201805461012c90611273565b80601f016020809104026020016040519081016040528092919081815260200182805461015890611273565b80156101a55780601f1061017a576101008083540402835291602001916101a5565b820191906000526020600020905b81548152906001019060200180831161018857829003601f168201915b505050505081526020016001820180546101be90611273565b80601f01602080910402602001604051908101604052809291908181526020018280546101ea90611273565b80156102375780601f1061020c57610100808354040283529160200191610237565b820191906000526020600020905b81548152906001019060200180831161021a57829003601f168201915b5050505050815260200160028201805461025090611273565b80601f016020809104026020016040519081016040528092919081815260200182805461027c90611273565b80156102c95780601f1061029e576101008083540402835291602001916102c9565b820191906000526020600020905b8154815290600101906020018083116102ac57829003601f168201915b505050505081526020016003820180546102e290611273565b80601f016020809104026020016040519081016040528092919081815260200182805461030e90611273565b801561035b5780601f106103305761010080835404028352916020019161035b565b820191906000526020600020905b81548152906001019060200180831161033e57829003601f168201915b5050505050815260200160048201805461037490611273565b80601f01602080910402602001604051908101604052809291908181526020018280546103a090611273565b80156103ed5780601f106103c2576101008083540402835291602001916103ed565b820191906000526020600020905b8154815290600101906020018083116103d057829003601f168201915b5050505050815260200160058201805461040690611273565b80601f016020809104026020016040519081016040528092919081815260200182805461043290611273565b801561047f5780601f106104545761010080835404028352916020019161047f565b820191906000526020600020905b81548152906001019060200180831161046257829003601f168201915b5050505050815260200160068201805461049890611273565b80601f01602080910402602001604051908101604052809291908181526020018280546104c490611273565b80156105115780601f106104e657610100808354040283529160200191610511565b820191906000526020600020905b8154815290600101906020018083116104f457829003601f168201915b505050505081526020016007820154815260200160088201805461053490611273565b80601f016020809104026020016040519081016040528092919081815260200182805461056090611273565b80156105ad5780601f10610582576101008083540402835291602001916105ad565b820191906000526020600020905b81548152906001019060200180831161059057829003601f168201915b5050505050815250509050919050565b60006020528060005260406000206000915090508060000180546105e090611273565b80601f016020809104026020016040519081016040528092919081815260200182805461060c90611273565b80156106595780601f1061062e57610100808354040283529160200191610659565b820191906000526020600020905b81548152906001019060200180831161063c57829003601f168201915b50505050509080600101805461066e90611273565b80601f016020809104026020016040519081016040528092919081815260200182805461069a90611273565b80156106e75780601f106106bc576101008083540402835291602001916106e7565b820191906000526020600020905b8154815290600101906020018083116106ca57829003601f168201915b5050505050908060020180546106fc90611273565b80601f016020809104026020016040519081016040528092919081815260200182805461072890611273565b80156107755780601f1061074a57610100808354040283529160200191610775565b820191906000526020600020905b81548152906001019060200180831161075857829003601f168201915b50505050509080600301805461078a90611273565b80601f01602080910402602001604051908101604052809291908181526020018280546107b690611273565b80156108035780601f106107d857610100808354040283529160200191610803565b820191906000526020600020905b8154815290600101906020018083116107e657829003601f168201915b50505050509080600401805461081890611273565b80601f016020809104026020016040519081016040528092919081815260200182805461084490611273565b80156108915780601f1061086657610100808354040283529160200191610891565b820191906000526020600020905b81548152906001019060200180831161087457829003601f168201915b5050505050908060050180546108a690611273565b80601f01602080910402602001604051908101604052809291908181526020018280546108d290611273565b801561091f5780601f106108f45761010080835404028352916020019161091f565b820191906000526020600020905b81548152906001019060200180831161090257829003601f168201915b50505050509080600601805461093490611273565b80601f016020809104026020016040519081016040528092919081815260200182805461096090611273565b80156109ad5780601f10610982576101008083540402835291602001916109ad565b820191906000526020600020905b81548152906001019060200180831161099057829003601f168201915b5050505050908060070154908060080180546109c890611273565b80601f01602080910402602001604051908101604052809291908181526020018280546109f490611273565b8015610a415780601f10610a1657610100808354040283529160200191610a41565b820191906000526020600020905b815481529060010190602001808311610a2457829003601f168201915b5050505050905089565b6040518061012001604052808a8152602001898152602001888152602001878152602001868152602001858152602001848152602001838152602001828152506000803373ffffffffffffffffffffffffffffffffffffffff1673ffffffffffffffffffffffffffffffffffffffff1681526020019081526020016000206000820151816000019080519060200190610ae5929190610c16565b506020820151816001019080519060200190610b02929190610c16565b506040820151816002019080519060200190610b1f929190610c16565b506060820151816003019080519060200190610b3c929190610c16565b506080820151816004019080519060200190610b59929190610c16565b5060a0820151816005019080519060200190610b76929190610c16565b5060c0820151816006019080519060200190610b93929190610c16565b5060e08201518160070155610100820151816008019080519060200190610bbb929190610c16565b50905050505050505050505050565b6040518061012001604052806060815260200160608152602001606081526020016060815260200160608152602001606081526020016060815260200160008152602001606081525090565b828054610c2290611273565b90600052602060002090601f016020900481019282610c445760008555610c8b565b82601f10610c5d57805160ff1916838001178555610c8b565b82800160010185558215610c8b579182015b82811115610c8a578251825591602001919060010190610c6f565b5b509050610c989190610c9c565b5090565b5b80821115610cb5576000816000905550600101610c9d565b5090565b6000610ccc610cc784611198565b611167565b905082815260208101848484011115610ce457600080fd5b610cef848285611231565b509392505050565b600081359050610d0681611314565b92915050565b600082601f830112610d1d57600080fd5b8135610d2d848260208601610cb9565b91505092915050565b600081359050610d458161132b565b92915050565b600060208284031215610d5d57600080fd5b6000610d6b84828501610cf7565b91505092915050565b60008060008060008060008060006101208a8c031215610d9357600080fd5b60008a013567ffffffffffffffff811115610dad57600080fd5b610db98c828d01610d0c565b99505060208a013567ffffffffffffffff811115610dd657600080fd5b610de28c828d01610d0c565b98505060408a013567ffffffffffffffff811115610dff57600080fd5b610e0b8c828d01610d0c565b97505060608a013567ffffffffffffffff811115610e2857600080fd5b610e348c828d01610d0c565b96505060808a013567ffffffffffffffff811115610e5157600080fd5b610e5d8c828d01610d0c565b95505060a08a013567ffffffffffffffff811115610e7a57600080fd5b610e868c828d01610d0c565b94505060c08a013567ffffffffffffffff811115610ea357600080fd5b610eaf8c828d01610d0c565b93505060e0610ec08c828d01610d36565b9250506101008a013567ffffffffffffffff811115610ede57600080fd5b610eea8c828d01610d0c565b9150509295985092959850929598565b6000610f05826111c8565b610f0f81856111d3565b9350610f1f818560208601611240565b610f2881611303565b840191505092915050565b6000610f3e826111c8565b610f4881856111e4565b9350610f58818560208601611240565b610f6181611303565b840191505092915050565b6000610120830160008301518482036000860152610f8a8282610efa565b91505060208301518482036020860152610fa48282610efa565b91505060408301518482036040860152610fbe8282610efa565b91505060608301518482036060860152610fd88282610efa565b91505060808301518482036080860152610ff28282610efa565b91505060a083015184820360a086015261100c8282610efa565b91505060c083015184820360c08601526110268282610efa565b91505060e083015161103b60e0860182611062565b506101008301518482036101008601526110558282610efa565b9150508091505092915050565b61106b81611227565b82525050565b61107a81611227565b82525050565b600061012082019050818103600083015261109b818c610f33565b905081810360208301526110af818b610f33565b905081810360408301526110c3818a610f33565b905081810360608301526110d78189610f33565b905081810360808301526110eb8188610f33565b905081810360a08301526110ff8187610f33565b905081810360c08301526111138186610f33565b905061112260e0830185611071565b8181036101008301526111358184610f33565b90509a9950505050505050505050565b6000602082019050818103600083015261115f8184610f6c565b905092915050565b6000604051905081810181811067ffffffffffffffff8211171561118e5761118d6112d4565b5b8060405250919050565b600067ffffffffffffffff8211156111b3576111b26112d4565b5b601f19601f8301169050602081019050919050565b600081519050919050565b600082825260208201905092915050565b600082825260208201905092915050565b600061120082611207565b9050919050565b600073ffffffffffffffffffffffffffffffffffffffff82169050919050565b6000819050919050565b82818337600083830152505050565b60005b8381101561125e578082015181840152602081019050611243565b8381111561126d576000848401525b50505050565b6000600282049050600182168061128b57607f821691505b6020821081141561129f5761129e6112a5565b5b50919050565b7f4e487b7100000000000000000000000000000000000000000000000000000000600052602260045260246000fd5b7f4e487b7100000000000000000000000000000000000000000000000000000000600052604160045260246000fd5b6000601f19601f8301169050919050565b61131d816111f5565b811461132857600080fd5b50565b61133481611227565b811461133f57600080fd5b5056fea264697066735822122093e94e732327c21b216f3361edad9cbf8bb59fd4f30f6a6e3614fd6ac9a7f9be64736f6c63430008000033",
  "immutableReferences": {},
  "source": "// contracts/DiplomaRegistry.sol\npragma solidity ^0.8.0;\n\ncontract DiplomaRegistry {\n    struct Diploma {\n        string name;\n        string firstName;\n        string cne;\n        string cin;\n        string degree;\n        string specialization;\n        string university;\n        uint256 year;\n        string mention;  \n    }\n\n    mapping(address => Diploma) public diplomas;\n\n    function registerDiploma(\n        string memory name,\n        string memory firstName,\n        string memory cne,\n        string memory cin,\n        string memory degree,\n        string memory specialization,\n        string memory university,\n        uint256 year,\n        string memory mention \n    ) public {\n        diplomas[msg.sender] = Diploma(name, firstName, cne, cin, degree, specialization, university, year, mention);\n    }\n\n    function getDiploma(address student) public view returns (Diploma memory) {\n        return diplomas[student];\n    }\n}\n",
  "sourcePath": "/Users/ettalhaoui/Desktop/degital_Diplomas/blockchain/contracts/DiplomaRegistry.sol",
  "compiler": {
    "name": "solc",
    "version": "0.8.0+commit.c7dfd78e.Emscripten.clang"
  },
  "schemaVersion": "3.4.16",
  "updatedAt": "2025-01-26T17:52:26.516Z",
  "networkType": "ethereum",
  "devdoc": {
    "kind": "dev",
    "methods": {},
    "version": 1
  },
  "userdoc": {
    "kind": "user",
    "methods": {},
    "version": 1
  }
}